:0400000041EF00F0DC
:100008005F82FACF1DF0FBCF1EF0E9CF1FF0EACFD9
:1000180020F0E1CF21F0E2CF22F0D9CF23F0DACFE0
:1000280024F0F3CF25F0F4CF26F0F6CF27F0F7CF62
:1000380028F0F8CF29F0F5CF2AF079EC05F02AC09E
:10004800F5FF29C0F8FF28C0F7FF27C0F6FF26C034
:10005800F4FF25C0F3FF24C0DAFF23C0D9FF22C074
:10006800E2FF21C0E1FF20C0EAFF1FC0E9FF1EC078
:0E007800FBFF1DC0FAFF5F92110033EF0FF087
:1003000000D3034803A5037C0305010906A10105E9
:100310000719E029E7150025017501950881029567
:1003200001750881039505750105081901290591D5
:10033000029501750391039506750815002565055D
:1003400007190029658100C034034D00690063006E
:1003500072006F00630068006900700020005400A4
:100360006500630068006E006F006C006F0067003E
:100370007900200049006E0063002E000902290068
:10038000010100C03209040000020301010009213B
:1003900011010001223F0007058103080001070544
:1003A00001030800011C034B006500790062006F27
:1003B000006100720064002000440065006D006F61
:1003C000001201000200000008D8045500010001DD
:1003D000020001040309040002012205D8A410D080
:1003E000020120511F0B0009D8A40AD0408E030E31
:1003F00002012119D8A402D0010E01D0000E546EC2
:1004000002012251D8A41200020120511F0B020A3E
:10041000D8A41200020124510F0B0009D8B4120015
:10042000020124510F0B156E020E15601200200EF2
:1004300000018119D8A41200408E020124BF1BD0F4
:10044000020124510F0B156E1550020D720EF3248C
:10045000D96E000EF420DA6EDECF19F0DDCF1AF07F
:10046000020124510F0B156E1550010D4D0EF32492
:10047000D96E000E1AD0020124510F0B156E1550C3
:10048000020D430EF324D96E000EF420DA6EDECF97
:1004900019F0DDCF1AF0020124510F0B156E155023
:1004A000010D4B0EF324D96E000EF420DA6EDF50EE
:1004B000186E18B002D0199401D01984020124BF1B
:1004C0000BD0020124510F0B156E1550020D720E48
:1004D000F324D96E000E0AD0020124510F0B156EC1
:1004E0001550020D430EF324D96E000EF420DA6E7F
:1004F00019C0DEFF1AC0DDFF030E02012119D8A4C6
:100500002ED019C0D9FF1AC0DAFFDFAE1BD002010E
:1005100024BF0BD0020124510F0B156E1550010D95
:100520004D0EF324D96E000E0AD0020124510F0B98
:10053000156E1550010D4B0EF324D96E000EF420EC
:10054000DA6EDF8219C0D9FF1AC0DAFF000EDB8431
:1005500019C0D9FF1AC0DAFF000EDB8E1200040E9C
:10056000191A19C0D9FF1AC0DAFFDFAE1BD019C0A3
:10057000D9FF1AC0DAFF7F0EDF1619C0D9FF1AC0E3
:10058000DAFF000EDB8C000E0E6E050E0D6E19C02C
:100590000FF01AC010F0000E126E020E116EA8ECD1
:1005A0000BF006D019C0D9FF1AC0DAFF000EDB8CA1
:1005B000040E191A18B206D019C0D9FF1AC0DAFFF2
:1005C000DFAE30D0020124BF0BD0020124510F0B4B
:1005D000156E1550010D4D0EF324D96E000E0AD084
:1005E000020124510F0B156E1550010D4B0EF32413
:1005F000D96E000EF420DA6EDF9219C0D9FF1AC04E
:10060000DAFF3B0EDF16000E0E6E050E0D6E19C0E2
:100610000FF01AC010F0000E126E020E116EA8EC50
:100620000BF006D019C0D9FF1AC0DAFF3B0EDF1657
:10063000020124510F0B156E1550010D530EF324BA
:10064000166E0F0EF420176E16C0D9FF17C0DAFF12
:10065000FE0EDF16120004D049C076F04AC077F0D3
:10066000495000017619F8E14A5000017719D8A4E1
:10067000F3D778C033F079C034F0331E341E334AD8
:10068000342A0001765133240001876F000177512D
:1006900034200001886F000188AF16D078C033F095
:1006A00079C034F0331E341E334A342A00017651A7
:1006B0003326000177513422FF0E33240001876F67
:1006C0007F0E34200001886F000188BF12D0890E90
:1006D0000001875D130E00018859D8A00AD0780E5A
:1006E000000176250001786FEC0E000177210001F2
:1006F000796F0001685100016911D8B407D068C052
:10070000D9FF69C0DAFF0001DFBE80D0400E2B6E3A
:10071000020E2C6E000E2E6E000E2D6E000E306E30
:10072000080E2F6EDDEC0EF000016D51D8A40FD035
:10073000010E00016D6F6CC042F200016C2B280E9F
:1007400000016C19D8A403D0040E00016C6F000ED8
:100750000001866F000E0001896F070E0001896598
:1007600001D01DD000018951010D400EF324D96E36
:10077000020EF420DA6E00018951010D600EF3249F
:10078000E16E000EF420E26EDE50E618D8B404D01C
:10079000010E0001866F03D00001892BDED7000116
:1007A0007A5100017B11D8B411D000017A510001B7
:1007B000875D00018851800A336E00017B51800AF9
:1007C0003358D8A003D0010E0001866F00018605C2
:1007D000D8A41CD022EE40F010EE60F0070EDBCF64
:1007E000E3FFE806FCE2010E2B6E400E2C6E020EBB
:1007F0002D6E080E2E6E010E49EC0AF02BC068F02B
:100800002CC069F076C078F077C079F000016A51A9
:1008100000016B11D8B407D06AC0D9FF6BC0DAFFF2
:100820000001DFBE12007AEC0FF0000E2B6E480EB6
:100830002C6E020E2D6E010E2E6E010E49EC0AF08A
:100840002BC06AF02CC06BF01200A094000E0F01B8
:100850005F6F000E626E000E0F01536F540E2B6E11
:100860000F0E2C6E000E2E6E000E2D6E000E306ED2
:10087000010E2F6EDDEC0EF0160E616E9F0E0F0155
:100880005B6F7B0E606E000E336E070E336401D01B
:100890000ED03350040D000EF324D96E020EF42056
:1008A000DA6EDE6ADE6ADE6ADD6A332AEED7648CCF
:1008B000000E0F015C6F6498649C6296000E406E9F
:1008C000000E386E000E3A6E000E396E62B6F5D725
:1008D000010E576E010E0001826F000E00017F6F46
:1008E000000E0001806F000E556E000E336E010E7B
:1008F000336401D02ED03350020D430EF324D96E51
:10090000000EF420DA6E000EDE6E000EDD6E335047
:10091000020D720EF324D96E000EF420DA6E000E72
:10092000DE6E000EDD6E3350010D4B0EF324D96EDA
:10093000000EF420DA6E000EDF6E3350010D4D0E06
:10094000F324D96E000EF420DA6E000EDF6E332A27
:10095000CED7080E436E020E446E160E0F01536F73
:10096000020E0201036F200E026F080E0201016FDA
:10097000040E0201006F0201008F000E5C6E000E7B
:1009800000016E6F000E6F6F000E706F000E716FC2
:10099000000E0001836F000E0001816F1200A09411
:1009A000000E0F015F6F000E626E000E0F01536F9D
:1009B000540E016E0F0E026E000E046E000E036EDA
:1009C000000E066E010E056EF3EC0EF0160E616E53
:1009D0009F0E0F015B6F7B0E606E000E096E070E9F
:1009E000096401D00ED00950040D000EF324D96E15
:1009F000020EF420DA6EDE6ADE6ADE6ADD6A092A39
:100A0000EED7648C000E0F015C6F6498649C629654
:100A1000000E406E000E386E000E3A6E000E396EFB
:100A200062B6F5D7010E576E010E0001826F000EFF
:100A300000017F6F000E0001806F000E556E000EEA
:100A4000096E010E096401D02ED00950020D430E2B
:100A5000F324D96E000EF420DA6E000EDE6E000E66
:100A6000DD6E0950020D720EF324D96E000EF420D3
:100A7000DA6E000EDE6E000EDD6E0950010D4B0EBB
:100A8000F324D96E000EF420DA6E000EDF6E0950EA
:100A9000010D4D0EF324D96E000EF420DA6E000E17
:100AA000DF6E092ACED7080E436E020E446E160E74
:100AB0000F01536F020E0201036F200E026F080E2A
:100AC0000201016F040E0201006F0201008F000E8F
:100AD0005C6E000E00016E6F000E6F6F000E706F87
:100AE000000E716F000E0001836F000E0001816F18
:100AF000120000018105D8B464BA07D0000E626EFE
:100B000060806088020E0001816F62B460A403D02F
:100B10006294ACEC0EF064A202D0A194120062B018
:100B200060A007D0CFEC04F0A084040E0001816F18
:100B3000629062B860A802D0C6EC0EF062AC1AD027
:100B400060AC0ED0000E0E6E730E0D6E000E0F6EAA
:100B5000000E106E000E126E010E116EA8EC0BF05E
:100B6000629C59EC0FF05850D8A458065850D8B48D
:100B7000E6EC09F062BA60AA02D06CEC0DF062B249
:100B800060A210D07F0E0E6E0D68000E0F6E000E6C
:100B9000106E000E126E010E116EA8EC0BF0000E1E
:100BA0000F015F6F040E0001816102D0A194120059
:100BB00060A638D0000E1C6E030E1C6401D032D02B
:100BC00062A630D063CF5EF05E30E832E8320F0BC1
:100BD0005A6E62965EB407D05A50010D4D0EF32442
:100BE000D96E000E06D05A50010D4B0EF324D96E6B
:100BF000000EF420DA6EDF705A50D8A403D03EEC19
:100C00000CF00ED0000E0E6E720E0D6E5E0E0F6E9C
:100C1000000E106E000E126E000E116EA8EC0BF09E
:100C20001C2ACAD7A194120020EE01F04F50D926F9
:100C30005050DA22DF50036E0350395C000E3A58F0
:100C4000D8A039C003F00350395E000E3A5A000EA6
:100C5000026E11D00250010D280EF324D96E020E3F
:100C6000F420DA6E35C0E1FF36C0E2FFDFCFE7FFE8
:100C7000354A362A022A0350025CD8A0EBD73950F5
:100C80003A10D8B432D020EE01F05150D92652504B
:100C9000DA22080EDF6E20EE02F05150D9265250B3
:100CA000DA22280EDE6E020EDD6E4FC0D9FF50C074
:100CB000DAFFDFBC0DD051C0D9FF52C0DAFF480EB9
:100CC000DF6E51C0D9FF52C0DAFF000EDB8E12007A
:100CD00051C0D9FF52C0DAFF080EDF6E51C0D9FFF4
:100CE00052C0DAFF000EDB8E120020EE01F05150F0
:100CF000D9265250DA22080EDF6E20EE02F0515053
:100D0000D9265250DA22200EDE6E020EDD6E51C060
:100D1000D9FF52C0DAFF040EDF6E51C0D9FF52C0B6
:100D2000DAFF000EDB8E3B503C10D8B40ED020EE24
:100D30003BF001D80AD00500FA6EDE50FD6EDE50A1
:100D4000FE6EF850FF6EFA501200389E5650D8A42E
:100D50001200E6EC09F01200800E02012019D8A45E
:100D60001200C00E406E7CD0C10E3D6E030E3E6E72
:100D7000000E426E120E416E120002012251D8A4E2
:100D80003ED002012251020D070EF324F66E030E2F
:100D9000F420F76E0900F5CF3DF00A00F5CF3EF0E4
:100DA000020E3D24016E000E3E20026E01C0F6FFD1
:100DB00002C0F7FFF86A020EF76403D00800F5508E
:100DC00005D0F6CFE9FFF7CFEAFFEF50416E030EF3
:100DD0003D24016E000E3E20026E01C0F6FF02C0EF
:100DE000F7FFF86A020EF76403D00800F55005D04B
:100DF000F6CFE9FFF7CFEAFFEF50426E1200000E88
:100E0000406E1200030E0201226124D00201225121
:100E1000020D010EF324F66E030EF420F76E0900A6
:100E2000F5CF3DF00A00F5CF3EF03DC0F6FF3EC0E5
:100E3000F7FFF86A020EF76403D00800F55005D0FA
:100E4000F6CFE9FFF7CFEAFFEF50016E0150416E98
:100E5000426A1200000E406E1200000E406E120038
:100E600002012351010AD8B47FD7030AD8B485D729
:100E7000010AD8B4C7D7F1D7649840BE3AD038AE8B
:100E80000DD0020E596E00018051D8B45AEC0BF00F
:100E9000000E0001826F000E576E120020EE01F06E
:100EA0005150D9265250DA22080EDF6E20EE02F0A1
:100EB0005150D9265250DA22200EDE6E020EDD6E1F
:100EC00051C0D9FF52C0DAFF0C0EDF6E51C0D9FFFE
:100ED00052C0DAFF000EDB8E43C0D9FF44C0DAFFF8
:100EE000040EDF6E43C0D9FF44C0DAFF000EDB8E74
:100EF0001200020120AF12D0010E596E00017F5185
:100F0000D8B45AEC0BF0000E0001826F000E576E41
:100F10005650D8A41200E6EC09F01200020E596EE9
:100F200020EE01F05150D9265250DA22080EDF6E21
:100F300020EE02F05150D9265250DA22200EDE6EF9
:100F4000020EDD6E51C0D9FF52C0DAFF040EDF6E13
:100F500051C0D9FF52C0DAFF000EDB8E000E000137
:100F6000826F000E576E5650D8A41200E6EC09F0BE
:100F70001200020120511F0BE806D8A41200020142
:100F80002451D8A41200060E02012119D8B418D099
:100F900020D05C04D8A41DD08E0E3D6E030E3E6E94
:100FA000000E426E090E0AD0C00E406E12D0090E1D
:100FB0003D6E030E3E6E000E426E3F0E416EF4D744
:100FC00002012351210AD8B4E4D7030AD8B4EFD7D9
:100FD000010A02012039E832030BE806D8A4120006
:100FE00029D06CEC0FF01200850E3D6E000E3E6EA7
:100FF000000E426E010E416EC10E406E1200800E58
:10100000406E23C285F085C001F00201225190ECB0
:101010000FF01200840E3D6E000E3E6E000E426E0A
:10102000010E416E810E406E1200800E406E22C293
:1010300084F0120002012151010AD8B41200030AFF
:10104000D8B4D2D7010AD8B4E5D70A0AD8B4C9D7D8
:10105000030AD8B4D4D7010AD8A41200E6D743C0F3
:10106000D9FF44C0DAFF000EDFBC010E026E040E91
:10107000431A080E00018119D8A40ED00201225192
:101080007F0B0F015C6F0F015C51D8B402D0100EC2
:1010900001D0040E0001816F5904D8A43AD020EE8B
:1010A00002F04350D9264450DA22280EDE6E020E9A
:1010B000DD6E7FEC09F0020E5B18D8A40DD043C0A2
:1010C000D9FF44C0DAFF040EDF6E43C0D9FF44C02D
:1010D000DAFF000EDB8E12000250D8A40DD043C000
:1010E000D9FF44C0DAFF480EDF6E43C0D9FF44C0C9
:1010F000DAFF000EDB8E120043C0D9FF44C0DAFFD6
:10110000080EDF6E43C0D9FF44C0DAFF000EDB8E4D
:10111000120038AE13D03B503C10D8B40ED020EEA5
:101120003BF001D80AD00500FA6EDE50FD6EDE50AD
:10113000FE6EF850FF6EFA501200389E000E596E87
:101140001200408E540E016E0F0E026E000E046EE1
:10115000000E036E000E066E010E056EF3EC0EF02F
:10116000000E016E020E026E000E046E000E036E83
:10117000000E066E200E056EF3EC0EF0648C000E71
:10118000156E010E156401D016D01550010D4B0ED1
:10119000F324D96E000EF420DA6E000EDF6E1550C7
:1011A000010D4D0EF324D96E000EF420DA6E000E00
:1011B000DF6E152AE6D75D0E016E000E026E000E80
:1011C000046E000E036E000E066E010E056EF3EC4B
:1011D0000EF0649C080E436E020E446E000E4F6EBD
:1011E000020E506E4FC051F050C052F022C25CF05F
:1011F0005C50D8A404D0100E0001816F1200000EC4
:101200000E6E010E0D6E5C0E0F6E000E106E000E57
:10121000126E010E116EA8EC0BF0200E0001816F12
:10122000120002012039E832030B0009D8A4120091
:1012300044D0408E080E0001816F1200ACEC06F025
:101240001200A1EC08F012005C0E3D6E000E3E6E26
:101250004080010E416E408E120003EC0BF0120034
:10126000ECEC01F0120002012451010D5D0EF3249B
:101270003D6E000EF4203E6E4080010E416E408EA9
:101280001200408E02012451010D5D0EF324D96E2F
:10129000000EF420DA6E22C2DFFF1200000E0E6E86
:1012A000020E0D6E000E0F6E000E106E000E126E0E
:1012B000000E116EA8EC0BF0120002012151000A81
:1012C000D8B4CBD7010AD8B4CBD7020AD8B4C8D780
:1012D000060AD8B4AED7030AD8B4B0D7010AD8B436
:1012E000DDD70F0AD8B4B0D7010AD8B4AAD7030AF9
:1012F000D8B4B9D7010AD8B4C4D7070A1200080E67
:10130000016E425010E1080E415CD8B00CD041C0D3
:1013100001F05B50D8A402D0010E04D05B04D8A425
:1013200002D0020E5B6E0150415E000E425A20EE6A
:1013300001F04350D9264450DA2201C0DFFF280EC5
:1013400000017C6F020E00017D6F40A01CD03AD0DE
:101350003DC0F6FF3EC0F7FFF86A7CC0D9FF7DC0F4
:10136000DAFF020EF76403D00800F55005D0F6CF7F
:10137000E9FFF7CFEAFFEF50DF6E3D4A3E2A00015A
:101380007C4B7D2B01060150D8B41200E1D73DC043
:10139000F6FF3EC0F7FFF86A7CC0D9FF7DC0DAFFD8
:1013A000020EF76403D00800F55005D0F6CFE9FF30
:1013B000F7CFEAFFEF50DF6E3D4A3E2A00017C4B3B
:1013C0007D2B01060150D8B41200E1D75750D8A4A4
:1013D0001200010E576E00018251D8A41200010EB6
:1013E0000001826F020E5918D8A415D020EE01F02A
:1013F0004350D9264450DA22000EDF6E43C0D9FF95
:1014000044C0DAFF480EDF6E43C0D9FF44C0DAFFA4
:10141000000EDB8E12005904D8A41200000E536E89
:1014200020EE01F04F50D9265050DA22080EDF6E20
:1014300020EE02F04F50D9265050DA22200EDE6EF8
:10144000020EDD6E4FC0D9FF50C0DAFF040EDF6E12
:101450004FC0D9FF50C0DAFF000EDB8E010E536E75
:1014600020EE01F05150D9265250DA22080EDF6EDC
:1014700020EE02F05150D9265250DA22200EDE6EB4
:10148000020EDD6E51C0D9FF52C0DAFF800EDF6E52
:1014900012002F6E2B50D8B407D02F50020D430EE0
:1014A000F324D96E000E06D02F50020D720EF324D5
:1014B000D96E000EF420DA6EDECF30F0DDCF31F0E1
:1014C00030503110D8A405D0000E2B6E000E2C6EBB
:1014D000120020EE02F03050D9263150DA222CC012
:1014E000DEFF2DC0DDFF20EE01F03050D926315057
:1014F000DA222EC0DFFF30C0D9FF31C0DAFF400E44
:10150000DF1630C0D9FF31C0DAFF000EDB8630C0F5
:10151000D9FF31C0DAFF000EDB8E2B50D8B407D0D4
:101520002F50020D430EF324D96E000E06D02F501B
:10153000020D720EF324D96E000EF420DA6E040E42
:10154000DF1A30C02BF031C02CF01200056E0150B4
:10155000D8B407D00550020D430EF324D96E000E07
:1015600006D00550020D720EF324D96E000EF42041
:10157000DA6EDECF06F0DDCF07F006500710D8A4F4
:1015800005D0000E016E000E026E120020EE02F079
:101590000650D9260750DA2202C0DEFF03C0DDFF65
:1015A00020EE01F00650D9260750DA2204C0DFFFF2
:1015B00006C0D9FF07C0DAFF400EDF1606C0D9FF0C
:1015C00007C0DAFF000EDB8606C0D9FF07C0DAFFCE
:1015D000000EDB8E0150D8B407D00550020D430E2B
:1015E000F324D96E000E06D00550020D720EF324BE
:1015F000D96E000EF420DA6E040EDF1A06C001F078
:1016000007C002F01200000E0201286F000E020156
:10161000296F3AD0408E020128815404D8A440D0CA
:10162000020128833DD0408E3BD0408E020124BF72
:101630000BD0020124510F0B016E0150020D720EEE
:10164000F324D96E000E0AD0020124510F0B016E53
:101650000150020D430EF324D96E000EF420DA6E11
:10166000DECF02F0DDCF03F002C0D9FF03C0DAFF06
:10167000DFAE16D002C0D9FF03C0DAFFDFA410D05E
:10168000010E0201286F0CD0020120511F0B000A2D
:10169000D8B4C0D7010AD8B4C6D7030AD8B4C5D7BE
:1016A00040AE1200280E3D6E020E3E6E4080020ECD
:1016B000416E1200000E00017F6F000E0001806F6E
:1016C000020E5918D8A41FD020EE01F05150D9268F
:1016D0005250DA22080EDF6E20EE02F05150D92669
:1016E0005250DA22280EDE6E020EDD6E51C0D9FF96
:1016F00052C0DAFF480EDF6E51C0D9FF52C0DAFF88
:10170000000EDB8E120041500201265D42500201A4
:101710002759D8B004D026C241F027C242F07FEC4E
:1017200009F020EE02F04350D9264450DA22280E68
:10173000DE6E020EDD6E43C0D9FF44C0DAFF480EF4
:10174000DF6E43C0D9FF44C0DAFF000EDB8E12000B
:1017500022D0C9EC0CF0492804E17F0E4A18D8B415
:1017600003D0494A4A2A1200000E4A6E000E496E02
:101770001200C9EC0CF0010E1EEC0FF01200C9ECC7
:101780000CF0020E1EEC0FF012000AEC0DF012002D
:10179000B9EC07F012000DC013F00EC014F0145095
:1017A000000AD8B404D07F0AD8A412001AD013506B
:1017B000010AD8B4EAD7030AD8B41200010AD8B48F
:1017C000E7D7060AD8B41200770AD8B41200010A83
:1017D000D8B4BFD7070AD8B4D2D7010AD8A4120008
:1017E000C8D71350FF0A1200066E000E076E020ED5
:1017F000086E0150026E036AD89002360336065016
:10180000046E056AD89004360536D890043605363D
:101810000250042603500522D89004360536D8908D
:1018200004360536045007260550082207C0D9FFA4
:1018300008C0DAFFDF9E0150D8A407D00650020D81
:10184000720EF324D96E000E06D00650020D430E20
:10185000F324D96E000EF420DA6E07C0DEFF08C054
:10186000DDFF07C0D9FF08C0DAFFDF9C20EE04F0DF
:101870000750D9260850DA22DF8C12002D0E586E40
:101880005EC01BF0FD0E1B16D8A438D05EC01BF046
:10189000D8901B323F0E1B161B50040D000EF32474
:1018A0004F6E020EF420506E4FC051F050C052F0F7
:1018B000040E511A4FC0D9FF50C0DAFFDF30E832B2
:1018C0000F0B0D0AD8A417D0200E016E020E026E67
:1018D00020EE02F04F50D9265050DA22DECF03F02E
:1018E000DDCF04F0000E066E080E056EB1EC0DF0B3
:1018F00086EC0CF012003EEC0DF012005E50FD0B79
:10190000040AD8A412002FEC08F01200000E5B6E3F
:10191000000E566E000E00017F6F000E0001806FFA
:10192000000E536E000E596E43C0D9FF44C0DAFF5B
:101930007F0EDF16040E431A43C0D9FF44C0DAFFFE
:101940007F0EDF16040E431A51C0D9FF52C0DAFFD2
:101950007F0EDF16000E406E000E426E000E416ECE
:10196000000E386E000E3A6E000E396E11EC09F062
:10197000000E0E6E030E0D6E000E0F6E000E106E3A
:10198000000E126E000E116EA8EC0BF03CEC07F08E
:10199000120064A236D0010E91EC0EF01200470442
:1019A0004810D8A404D0010E76EC0EF030D04B0EC7
:1019B00047184810D8A404D0010E91EC0EF027D09F
:1019C000485004E1970E475CD8A021D0000E486E25
:1019D000000E476E1CD047044810D8A404D0010E56
:1019E00076EC0EF014D0320E47184810D8A404D06C
:1019F000010E91EC0EF00BD0B70E475C030E485869
:101A0000E3D700018151200AD8B4C9D7E4D7474AA7
:101A1000482A1200000E0001686F000E0001696F75
:101A2000040E00016C6F000E00016D6F010E0001CD
:101A30007B6FF40E7A6F04D049C078F04AC079F019
:101A4000495000017819F8E14A5000017919D8A4E9
:101A5000F3D71E0E096E010ED1EC0DF0000E016ED3
:101A6000480E026E020E036E010E046E010EA6EC0D
:101A70000AF001C06AF002C06BF01200020E5918A1
:101A8000D8A403D014EC06F01200000E596E535087
:101A9000D8A41FD020EE01F05150D9265250DA229E
:101AA000080EDF6E20EE02F05150D9265250DA2295
:101AB000200EDE6E020EDD6E51C0D9FF52C0DAFF7D
:101AC0000C0EDF6E51C0D9FF52C0DAFF000EDB8E64
:101AD0001200000E536E12000F0153A11ED04FC012
:101AE000D9FF50C0DAFF800EDE18D8A414D043C04E
:101AF000D9FF44C0DAFF840EDE18D8A40CD04FC042
:101B0000D9FF50C0DAFF0C0EDF6E4FC0D9FF50C0B6
:101B1000DAFF000EDB8E0F015391629A1200000E65
:101B200009EC0FF025EC04F0EFEC0DF0000E0001D5
:101B30008D6F000E8C6F000E00018B6F000E8A6F90
:101B4000200E0001816101D0FBD764A204D0010EF8
:101B500046EC0FF0F5D72BEC03F000018C4B8D2BEE
:101B6000EFD703C009F004C00AF001C007F002C0BB
:101B700008F00ED009C0D9FF0AC0DAFF07C0E1FFA4
:101B800008C0E2FFDFCFE7FF094A0A2A074A082A0E
:101B90000506D8A006060528EDE10628D8B41200EF
:101BA000E9D70C6E09A405D0000E016E0C50F4ECC0
:101BB0000BF009A205D0010E016E0C50F4EC0BF0F5
:101BC0000C50010D530EF3240A6E0F0EF4200B6E11
:101BD0000AC0D9FF0BC0DAFF09C0DFFF1200000105
:101BE0008151D8A41200000E646E000E606E160EB5
:101BF000616E9F0E0F015B6F7B0E606ED08EA284B4
:101C0000A084F28E01D0648664A6FDD7010E000187
:101C1000816F12002B6E08D09490120094921200E3
:101C200094941200949612002B50000AD8B412001B
:101C3000010AD8B4F1D7030AD8B4F0D7010AD8B44E
:101C4000EFD7070AD8A41200EDD72B6E08D08B80EF
:101C500012008B8212008B8412008B8612002B5094
:101C6000000AD8B41200010AD8B4F1D7030AD8B4D4
:101C7000F0D7010AD8B4EFD7070AD8A41200EDD7DD
:101C80002B6E08D08B9012008B9212008B94120056
:101C90008B9612002B50000AD8B41200010AD8B457
:101CA000F1D7030AD8B4F0D7010AD8B4EFD7070A9E
:101CB000D8A41200EDD7016E08D09490120094922F
:101CC000120094941200949612000150000AD8B4A5
:101CD0001200010AD8B4F1D7030AD8B4F0D7010A28
:101CE000D8B4EFD7070AD8A41200EDD7016E08D0F8
:101CF0008B8012008B8212008B8412008B86120064
:101D00000150000AD8B41200010AD8B4F1D7030A6E
:101D1000D8B4F0D7010AD8B4EFD7070AD8A4120074
:101D2000EDD7016E08D08B9012008B9212008B942D
:101D300012008B9612000150000AD8B41200010A5A
:101D4000D8B4F1D7030AD8B4F0D7010AD8B4EFD782
:101D5000070AD8A41200EDD7000E556E000E0E6EC5
:101D6000740E0D6E000E0F6E000E106E000E126ED1
:101D7000000E116EA8EC0BF06492609401D0629496
:101D800062B4FDD7000E0001836F12006084629878
:101D90006482010E556E000E0001836F000E0E6E00
:101DA000750E0D6E000E0F6E000E106E000E126E90
:101DB000000E116EA8EC0BF012002BC031F02CC0FD
:101DC00032F008D031C0D9FF32C0DAFF2DC0DFFFBA
:101DD000314A322A2F06D8A030062F28F3E13028C6
:101DE000D8B41200EFD701C007F002C008F008D045
:101DF00007C0D9FF08C0DAFF03C0DFFF074A082A7F
:101E00000506D8A006060528F3E10628D8B4120076
:101E1000EFD72C6E0AD0010E0AEC0EF0020E0AEC7F
:101E20000EF0010E99EC0FF012002C50000AD8B4FD
:101E3000F2D7010AD8B41200030A1200026E0AD0C7
:101E4000010E5BEC0EF0020E5BEC0EF0010EA0EC4E
:101E50000FF012000250000AD8B4F2D7010AD8B429
:101E60001200030A120000EE60F0260EEE6AE80689
:101E7000FDE100EE35F02A0EEE6AE806FDE15F9026
:101E80005F92000EF86E00018FEF0DF02B6E08D000
:101E900080B602D0010E1200000E1200000E1200D9
:101EA0002B50000AD8B4FAD7010AD8B4F1D7000EE3
:101EB0001200010E00016E27000E6F2370237123A4
:101EC0005550D8A412000001832B00018351D8A4DF
:101ED0001200000183691200280E356E020E366E64
:101EE000000E3A6E080E396E4E0E3B6E1F0E3C6EA3
:101EF000388E1200020148A304D0020E25EC0EF029
:101F00001200020E40EC0EF01200020148A304D0B1
:101F1000020E76EC0EF01200020E91EC0EF01200A2
:101F2000026E0250D8A4120001C07AF000017B6B4F
:101F300012002B6E2B50000AD8B41200010A1200B6
:101F4000016E0150000AD8B41200010A120028C222
:081F500048F285EC0FF01200CD
:020000040020DA
:08000000FFFFFFFFFFFFFFFF00
:020000040030CA
:0E0000000032011EFF8081FF03C003E00340B9
:00000001FF
